:1000000071C0000081C000007FC000007DC0000002
:100010007BC0000079C0000077C0000075C0000000
:1000200073C0000071C000006FC000006DC0000010
:100030006BC0000069C0000067C0000065C0000020
:1000400063C0000061C000005FC000005DC0000030
:100050005BC0000059C0000057C0000055C0000040
:1000600053C000001AC2000047C200004DC000008B
:100070004BC0000049C0000047C0000045C0000060
:1000800043C0000041C000003FC000003DC0000070
:1000900061C200008EC2000037C0000035C0000001
:1000A00033C0000031C000002FC000002DC0000090
:1000B0002BC0000029C0000027C0000025C00000A0
:1000C00023C0000021C000001FC00000A0C200002B
:1000D000CDC2000019C00000F7C2000024C3000018
:1000E00013C0000011241FBECFEFD1E2DEBFCDBF91
:1000F00000E00CBF23E0A0E0B2E001C01D92A431FB
:10010000B207E1F702D086C37BCFCF93DF931F9274
:100110001F92CDB7DEB7789487E690E032D361E0E6
:10012000CE010196ACD162E0CE010296A8D10F2E8D
:10013000F2E3EF2EF12CF02D3DD38C0156D3C80104
:1001400099278C34910569F138F482349105D1F006
:100150008634910541F0F0CF8235910529F1833540
:10016000910529F1E9CFB701CE0101964CD1CE011D
:100170000196A6D0B701CE01029645D1CE010296D6
:100180009FD0DACFB701CE0101963DD1CE010196C5
:10019000C8D0B701CE01029636D1CE010296C1D0A9
:1001A000CBCF8AE0E80EF11C8AE0E81AF108CE0114
:1001B0000196E8D0CE010296E5D0BECFFC01808149
:1001C0008130F1F4E7E0F1E0808180648083808118
:1001D00080688083EAE0F1E0808180628083E0E2F1
:1001E000F1E080818A608083E1E2F1E080818A61D0
:1001F000808389EF90E090932701809326010895F2
:100200008230F1F4E7E0F1E08081846080838081D6
:1002100088608083EAE0F1E0808188608083E0E2AA
:10022000F1E0808182688083E1E2F1E080818A618F
:10023000808389EF90E090932701809326010895B1
:100240008330F1F4E7E0F1E0808180618083808198
:1002500080628083EAE0F1E0808180618083E0E277
:10026000F1E0808182628083E1E2F1E080818A6155
:10027000808389EF90E09093270180932601089571
:100280008430E9F4E7E0F1E080818160808380815F
:1002900082608083E1E0F1E0808188608083E0EA31
:1002A000F0E0808182688083E1EAF0E080818A6109
:1002B000808389EF90E09093A7008093A600089533
:1002C000FC018081823091F018F4813031F0089582
:1002D0008330A9F08430E1F00895E8E0F1E0808116
:1002E0008064808380818F7780830895E8E0F1E0E7
:1002F0008081846080838081877F80830895E8E0A7
:10030000F1E080818061808380818F7D808308958A
:10031000E8E0F1E080818160808380818D7F80834F
:100320000895FC018081823091F018F4813031F021
:1003300008958330A9F08430E1F00895E8E0F1E019
:1003400080818F7B80838081806880830895E8E04E
:10035000F1E080818B7F8083808188608083089535
:10036000E8E0F1E080818F7E8083808180628083FD
:100370000895E8E0F1E080818E7F80838081826053
:1003800080830895FC0180818230B1F018F48130BF
:1003900031F008958330E9F0843041F10895E8E0C8
:1003A000F1E080818F7B808380818F7780831092C2
:1003B0002D0110922C010895E8E0F1E080818B7FFF
:1003C00080838081877F8083109229011092280189
:1003D0000895E8E0F1E080818F7E808380818F7DC9
:1003E000808310922B0110922A010895E8E0F1E039
:1003F00080818E7F808380818D7F80831092A90091
:100400001092A80008950F931F93CF93DF938C0150
:10041000EB011C161D060CF453DFC93FD10544F453
:10042000DD2344F4D195C195D109C8017ADF02C01A
:10043000C9EFD0E0F8018081823071F018F481308A
:1004400031F018C0833069F0843081F013C0D0934C
:100450002D01C0932C010EC0D0932901C093280117
:1004600009C0D0932B01C0932A0104C0D093A900E6
:10047000C093A800DF91CF911F910F910895CF9362
:10048000DF93EC0168839ADECE017CDF60E070E0F0
:10049000CE01B9DFDF91CF9108951F920F920FB671
:1004A0000F9211240BB60F922F938F939F93EF937C
:1004B000FF938091C0002091C6008871E091D10225
:1004C000EF5FEF719091D002E91739F0E093D1021C
:1004D000F0E0EC52FD4F208301C082E08093CF0218
:1004E000FF91EF919F918F912F910F900BBE0F90E5
:1004F0000FBE0F901F9018951F920F920FB60F927C
:1005000011240BB60F928F939F93EF93FF939091CB
:10051000D3028091D202981769F0E091D202EF5F86
:10052000EF71E093D202F0E0EC50FD4F80818093B8
:10053000C60005C0E1ECF0E080818F7D8083FF91F3
:10054000EF919F918F910F900BBE0F900FBE0F9068
:100550001F9018951F920F920FB60F9211240BB691
:100560000F922F938F939F93EF93FF938091C800E7
:100570002091CE008871E0918C02EF5FEF71909135
:100580008B02E91739F0E0938C02F0E0E157FD4F60
:10059000208301C082E080938A02FF91EF919F91B6
:1005A0008F912F910F900BBE0F900FBE0F901F9049
:1005B00018951F920F920FB60F9211240BB60F923F
:1005C0008F939F93EF93FF9390918E0280918D0272
:1005D000981769F0E0918D02EF5FEF71E0938D0263
:1005E000F0E0E155FD4F80818093CE0005C0E9EC3D
:1005F000F0E080818F7D8083FF91EF919F918F91BB
:100600000F900BBE0F900FBE0F901F9018951F926A
:100610000F920FB60F9211240BB60F922F938F9358
:100620009F93EF93FF938091D0002091D600887123
:10063000E0914702EF5FEF7190914602E91739F0C0
:10064000E0934702F0E0E65BFD4F208301C082E0CB
:1006500080934502FF91EF919F918F912F910F9081
:100660000BBE0F900FBE0F901F9018951F920F9208
:100670000FB60F9211240BB60F928F939F93EF93A7
:10068000FF939091490280914802981769F0E09198
:100690004802EF5FEF71E0934802F0E0E659FD4F4A
:1006A00080818093D60005C0E1EDF0E080818F7DF0
:1006B0008083FF91EF919F918F910F900BBE0F90D0
:1006C0000FBE0F901F9018951F920F920FB60F92AA
:1006D00011240BB60F922F938F939F93EF93FF9359
:1006E00080913001209136018871E0910202EF5F24
:1006F000EF7190910102E91739F0E0930202F0E006
:10070000EB5FFD4F208301C082E080930002FF91E8
:10071000EF919F918F912F910F900BBE0F900FBE75
:100720000F901F9018951F920F920FB60F921124E1
:100730000BB60F928F939F93EF93FF9390910402C8
:1007400080910302981769F0E0910302EF5FEF7167
:10075000E0930302F0E0EB5DFD4F80818093360172
:1007600005C0E1E3F1E080818F7D8083FF91EF910F
:100770009F918F910F900BBE0F900FBE0F901F9007
:100780001895109204021092030210920202109225
:100790000102992324F426E0209330019F7790935F
:1007A00035018093340188E98093310186E080939C
:1007B000320108959091020280910102981791F000
:1007C000E0910102EF5FEF71E0930102F0E0EB5F77
:1007D000FD4F20818091000290E0982F8827820FA2
:1007E000911D089580E091E00895209104022F5F0B
:1007F0002F71909103022917E1F3E22FF0E0EB5DF6
:10080000FD4F808320930402E1E3F1E08081806268
:0808100080830895F894FFCFE6
:00000001FF
